:04000000C4EF01F058
:08000800046ED8CF05F0E0CF33
:1000100006F00001E9CF0CF0EACF07F0E1CF08F0DD
:10002000E2CF09F0D9CF0AF0DACF0BF0F3CF12F01C
:10003000F4CF13F0FACF14F0F5CF15F0F6CF16F099
:10004000F7CF17F000C00EF001C00FF002C010F0A3
:1000500003C011F09DAA30EF00F09EBA5DEF00F0F2
:100060009DA836EF00F09EB885EF00F00EC000F0BE
:100070000FC001F010C002F011C003F00CC0E9FF86
:1000800007C0EAFF078E08C0E1FF09C0E2FF0AC00F
:10009000D9FF0BC0DAFF12C0F3FF13C0F4FF14C086
:1000A000FAFF15C0F5FF16C0F6FF17C0F7FF0450A2
:1000B00006C0E0FF05C0D8FF1000036A5950190FB1
:1000C000E96E000E0320EA6E9EAAFED7AECFEFFFC8
:1000D00059C0CDF0010E59243F0B596E5A50595C4E
:1000E00002E1CDC059F09E9A36EF00F094908B80DB
:1000F0009EA8FED794908B80CEC0ADFF0000ACA22E
:10010000FED794908B9092EF00F09C519B5D0FE096
:10011000036A9C515B0FE96E000E0320EA6EEFCF7D
:10012000CEF0E4D7010E9C253F0B9C6F01D09D982B
:100130009E9836EF00F0ECCFFAFFED52EFCFE8FFDC
:10014000F96E12004D6573736167652072656365B2
:1001500069766520646F6E652E000D0A52756E6EAD
:10016000696E672E2E2E0D0A0000C651010A05E0A9
:10017000030A08E0010A0AE00CD0020EC96F080E5B
:10018000C86F07D0C96B550EC86F03D0C96B260E58
:10019000C86FAC98AC84AA86C9C0B0FFC8C0AFFF16
:1001A0009D8A08EF02F0C9919C519B5D01E1C981D4
:1001B000036A9B515B0FE96E000E0320EA6EC8C014
:1001C000EFFF010E9B253F0BCA6F9C51CA5DFDE0FE
:1001D000CAC09BF0C9A101D09D88F9EF00F00900C9
:1001E000F5520CE0F6CFC6F0F7CFC7F0F5CFC8F068
:1001F000DAD7C6C0F6FFC7C0F7FFF1D71200036A0F
:100200005A50190FE96E000E0320EA6EEFCFC8F0C6
:10021000010E5A243F0B5A6EC8C001F012005A500A
:10022000595C01E10ED0EBDF015023080AE1BD6B00
:10023000BE6BBF6BC06B020E036E440EC16F03C07A
:10024000C2F012005A50595C01E109D0D8DF01C058
:10025000BDF0020E036E600EC16F03C0C2F012004B
:100260005A50595C01E109D0CADF01C0BEF0020E4C
:10027000036E7C0EC16F03C0C2F012005A50595C6D
:1002800001E109D0BCDF01C0BFF0020E036E980E81
:10029000C16F03C0C2F012005A50595C01E11CD07A
:1002A000036AC3519D0F016E000E032201C0C6F008
:1002B00003C0C7F0A4DFC7C0EAFFC6C0E9FF01C0A2
:1002C000EFFFC32BBF51C35D07E1C36B030E036E8A
:1002D000160EC16F03C0C2F01200C76BC751BD1923
:1002E000BE19BF19C76FC66BBF51C65D0BE2036A6B
:1002F000C6519D0FE96E000E0320EA6EEF50C71B3A
:10030000C62BF2D7C051C75D02E0000E01D0010E2E
:10031000016E93EF01F05A50595C01E113D06FDF89
:1003200001C0C0F0DAD7015207E1020E036E1E0EC3
:10033000C16F03C0C2F006D0030E036E460EC16F3C
:1003400003C0C2F012005A50595C01E116D057DFC9
:100350000150240807E0020E036E1E0EC16F03C099
:10036000C2F00BD0020E036E1E0EC16F03C0C2F0AE
:10037000440EF66E010EF76E32DF1200EA6AC10E0D
:10038000E96ED9DE0FEF02F0F86AD09E078E9490E6
:100390008B90AA86110EAF6E040EB06EA60EAC6ED8
:1003A000900EAB6E020E036E1E0EC16F03C0C2F044
:1003B000C36BC56BC46BB990C19CC19E000EB86E77
:1003C00003D0A84019000000000EF86E030EF76E6F
:1003D000C20EF66E0900F550006E000A13E0090027
:1003E000F550016EE8BE05D00F0BEA6E0900F5CF9F
:1003F000E9FF01BC090001AC0900F5CFEEFF004E9A
:10040000E9D7F9D7F86A020EC66F780EC76FADD676
:10041000C00EF2125A0EF66E010EF76EE0DE5A5062
:0C042000595C02E0ABD7FBD7FAD7FFD73E
:020000040030CA
:0E00000000060D3E3C9C01000FC00FE00F40BB
:00000001FF
;PIC18F4431
;CRC=622D  CREATED="22-Nov-15 19:43"
