:0400000009EF02F012
:08000800046ED8CF05F0E0CF33
:1000100006F00001E9CF0CF0EACF07F0E1CF08F0DD
:10002000E2CF09F0D9CF0AF0DACF0BF0F3CF12F01C
:10003000F4CF13F0FACF14F0F5CF15F0F6CF16F099
:10004000F7CF17F000C00EF001C00FF002C010F0A3
:1000500003C011F09DA030EF00F09EB0CCEF00F097
:100060009DAA36EF00F09EBA63EF00F09DA83CEF2A
:1000700000F09EB88BEF00F00EC000F00FC001F052
:1000800010C002F011C003F00CC0E9FF07C0EAFF86
:10009000078E08C0E1FF09C0E2FF0AC0D9FF0BC00C
:1000A000DAFF12C0F3FF13C0F4FF14C0FAFF15C04B
:1000B000F5FF16C0F6FF17C0F7FF045006C0E0FFBB
:1000C00005C0D8FF1000036A5A501A0FE96E000EDF
:1000D0000320EA6E9EAAFED7AECFEFFF5AC0CFF044
:1000E000010E5A243F0B5A6E5B505A5C02E1CFC09E
:1000F0005AF09E9A3CEF00F094908B809EA8FED719
:1001000094908B80D0C0ADFF0000ACA2FED794903D
:100110008B9098EF00F09D519C5D0FE0036A9D511C
:100120005C0FE96E000E0320EA6EEFCFD0F0E4D74B
:10013000010E9D253F0B9D6F01D09D989E983CEF31
:1001400000F0D2919D519C5D01E1D281036A9C51E6
:100150005C0FE96E000E0320EA6ED1C0EFFF010EC6
:100160009C253F0BD36F9D51D35DFDE0D3C09CF028
:10017000D2A101D09D8812000900F5520CE0F6CF03
:10018000CFF0F7CFD0F0F5CFD1F0DBDFCFC0F6FF67
:10019000D0C0F7FFF1D71200020E036E620EC26FDD
:1001A00003C0C3F09D90C56BB80EF66E010EF76EDE
:1001B000E3DF9E903CEF00F054696D656F7574202D
:1001C0006F63637572726564210D0A00ECCFFAFFEC
:1001D000ED52EFCFE8FFF96E12004D657373616762
:1001E00065207265636569766520646F6E652E0DA6
:1001F0000A000D0A52756E6E696E672E2E2E0D0A5C
:100200000000C851010A05E0030A08E0010A0AE0FB
:100210000CD0020ECB6F080ECA6F07D0CB6B550EF9
:10022000CA6F03D0CB6B260ECA6FAC98AC84AA867B
:10023000CBC0B0FFCAC0AFFFB50ECD6E9D8A4EEFEA
:1002400002F0036A5B501A0FE96E000E0320EA6E9B
:10025000EFCFCAF0010E5B243F0B5B6ECAC001F00A
:1002600012005B505A5C01E115D0EBDF015023080E
:1002700011E1BE6BBF6BC06BC16BC46B020E036E32
:10028000960EC26F03C0C3F0D80ECF6EF00ECE6EC6
:100290009E909D8012005B505A5C01E10DD0D1DF31
:1002A00001C0BEF0D80ECF6EF00ECE6E020E036E01
:1002B000BA0EC26F03C0C3F012005B505A5C01E17A
:1002C0000DD0BFDF01C0BFF0D80ECF6EF00ECE6EE6
:1002D000020E036EDE0EC26F03C0C3F012005B504D
:1002E0005A5C01E10DD0ADDF01C0C0F0D80ECF6E79
:1002F000F00ECE6E030E036E020EC26F03C0C3F08B
:1003000012005B505A5C01E120D0036AC4519E0F79
:10031000016E000E032201C0C8F003C0C9F091DFD6
:10032000C9C0EAFFC8C0E9FF01C0EFFFC42BD80E67
:10033000CF6EF00ECE6EC051C45D07E1C46B030EEC
:10034000036E880EC26F03C0C3F01200C96BC9519F
:10035000BE19BF19C019C96FC86BC051C85D0BE287
:10036000036AC8519E0FE96E000E0320EA6EEF503B
:10037000C91BC82BF2D7C151C95D02E0000E01D0E4
:10038000010E016ED0EF01F05B505A5C01E117D015
:1003900058DF01C0C1F0D80ECF6EF00ECE6ED6D7AA
:1003A000015207E1020E036E620EC26F03C0C3F07A
:1003B00006D0030E036EC00EC26F03C0C3F012005E
:1003C0005B505A5C01E11ED09D90C56B3ADF015035
:1003D000240807E0020E036E620EC26F03C0C3F072
:1003E00011D0020E036E620EC26F03C0C3F0DA0EAC
:1003F000F66E010EF76E196AF2BE198EF29EBCDE21
:1004000019BEF28E1200EA6AC20EE96EDFDE5BEF01
:1004100002F0F86AD09E078E94908B90AA86110EF7
:10042000AF6E040EB06EA60EAC6E900EAB6E020EEA
:10043000036E620EC26F03C0C3F0C46BC56BC76BA3
:10044000C66BB990C19CC19E000EB86E03D0A84087
:100450001A000000000EF86E040EF76E4E0EF66ED7
:100460000900F550006E000A13E00900F550016E16
:10047000E8BE05D00F0BEA6E0900F5CFE9FF01BC1D
:10048000090001AC0900F5CFEEFF004EE9D7F9D71E
:10049000F86A020EC86F780EC96FB3D6C00EF2129A
:1004A000F20EF66E010EF76E196AF2BE198EF29E0A
:1004B00063DE19BEF28E5B505A5C02E0A4D7FBD714
:0404C000FAD7FFD791
:020000040030CA
:0E00000000060D3E3C9C01000FC00FE00F40BB
:00000001FF
;PIC18F4431
;CRC=7107  CREATED="23-Nov-15 00:06"
