:0400000055EF02F0C6
:08000800046ED8CF05F0E0CF33
:1000100006F00001E9CF0CF0EACF07F0E1CF08F0DD
:10002000E2CF09F0D9CF0AF0DACF0BF0F3CF12F01C
:10003000F4CF13F0FACF14F0F5CF15F0F6CF16F099
:10004000F7CF17F000C00EF001C00FF002C010F0A3
:1000500003C011F09DA030EF00F09EB0A1EF00F0C2
:100060009DAA36EF00F09EBA63EF00F09DA83CEF2A
:1000700000F09EB88BEF00F00EC000F00FC001F052
:1000800010C002F011C003F00CC0E9FF07C0EAFF86
:10009000078E08C0E1FF09C0E2FF0AC0D9FF0BC00C
:1000A000DAFF12C0F3FF13C0F4FF14C0FAFF15C04B
:1000B000F5FF16C0F6FF17C0F7FF045006C0E0FFBB
:1000C00005C0D8FF1000036A5950190FE96E000EE1
:1000D0000320EA6E9EAAFED7AECFEFFF59C0DBF039
:1000E000010E59243F0B596E5A50595C02E1DBC096
:1000F00059F09E9A3CEF00F094908B809EA8FED71A
:1001000094908B80DCC0ADFF0000ACA2FED7949031
:100110008B9098EF00F09C519B5D0FE0036A9C511F
:100120005B0FE96E000E0320EA6EEFCFDCF0E4D740
:10013000010E9C253F0B9C6F01D09D989E983CEF33
:1001400000F0020E036E780EC26F03C0C3F09D90E4
:100150009E903CEF00F0ECCFFAFFED52EFCFE8FFBE
:10016000F96E12004D657373616765207265636592
:1001700069766520646F6E652E0D0A0041646472B5
:100180006573732068616E646C65722063616C6C6A
:1001900065642E0D0A00456E61626C652068616EB3
:1001A000646C65722063616C6C65642E0D0A0000DE
:1001B0000D0A52756E6E696E672E2E2E0D0A0000A6
:1001C000CF51010A05E0030A08E0010A0AE00CD059
:1001D000020ED26F080ED16F07D0D26B550ED16FC1
:1001E00003D0D26B260ED16FAC98AC84AA86D2C055
:1001F000B0FFD1C0AFFFB50ECD6E9D8AA6EF02F065
:10020000D7919C519B5D01E1D781036A9B515B0FA4
:10021000E96E000E0320EA6ED6C0EFFF010E9B25AB
:100220003F0BD86F9C51D85DFDE0D8C09BF0D7A1A3
:1002300001D09D8826EF01F00900F5520CE0F6CFC1
:10024000D4F0F7CFD5F0F5CFD6F0DAD7D4C0F6FF9B
:10025000D5C0F7FFF1D71200036A5A50190FE96EA3
:10026000000E0320EA6EEFCFD6F0010E5A243F0BAA
:100270005A6ED6C001F012005A50595C01E115D0F7
:10028000EBDF0150230811E1BD6BBE6BBF6BC06B90
:10029000C46B020E036EAC0EC26F03C0C3F0D80E67
:1002A000CF6EF00ECE6E9E909D8012005A50595C1B
:1002B00001E10DD0D1DF01C0BDF0D80ECF6EF00E40
:1002C000CE6E020E036ED00EC26F03C0C3F01200DA
:1002D0005A50595C01E10DD0BFDF01C0BEF0D80E0D
:1002E000CF6EF00ECE6E020E036EF40EC26F03C020
:1002F000C3F012005A50595C01E10DD0ADDF01C0CE
:10030000BFF0D80ECF6EF00ECE6E030E036E180E39
:10031000C26F03C0C3F012005A50595C01E120D0F3
:10032000036AC4519D0F016E000E032201C0D4F078
:1003300003C0D5F091DFD5C0EAFFD4C0E9FF01C00A
:10034000EFFFC42BD80ECF6EF00ECE6EBF51C45D42
:1003500007E1C46B030E036E9E0EC26F03C0C3F0B1
:100360001200D56BD551BD19BE19BF19D56FD46B0D
:10037000BF51D45D0BE2036AD4519D0FE96E000EAC
:100380000320EA6EEF50D51BD42BF2D7C051D55DB8
:1003900002E0000E01D0010E016EDBEF01F05A50B9
:1003A000595C01E117D058DF01C0C0F0D80ECF6E04
:1003B000F00ECE6ED6D7015207E1020E036E780E14
:1003C000C26F03C0C3F006D0030E036ED60EC26F19
:1003D00003C0C3F012005A50595C01E118D09D903F
:1003E0003BDF0150240807E0020E036E780EC26F57
:1003F00003C0C3F00CD0020E036E780EC26F03C0B0
:10040000C3F0640EF66E010EF76E16DFC1811200A6
:100410007C0EF66E010EF76E0FDF1200960EF66E72
:10042000010EF76E09DF1200EA6AC20EE96E93DE72
:10043000ADEF02F0D06B020ED16FD151D05D12E260
:10044000D051030DF350D36BD26FC90ED225E96E94
:10045000000ED321EA6E000EEFB0010ECF5D02E078
:10046000D02BEBD7D151D05D03E1FF0E016E1BD035
:10047000D051030DF350D36BD26F010ED225016E14
:10048000000ED321036E0150C90F016E000E03222E
:1004900001C0D2F003C0D3F003C0EAFF01C0E9FFFE
:1004A0005ADE000E016EB7EF02F0F86AD09E078E9A
:1004B00094908B90AA86110EAF6E040EB06EA60EAD
:1004C000AC6E900EAB6EC191020E036E780EC26FD1
:1004D00003C0C3F0C46BC66BC56BB990C19CC19E11
:1004E000000EB86E040ECB6F100ECA6F040ECE6FE6
:1004F0001C0ECD6F07D0A84019000100C9000100F3
:10050000CC010000000EF86E040EF76EF60EF66ECB
:100510000900F550006E000A13E00900F550016E65
:10052000E8BE05D00F0BEA6E0900F5CFE9FF01BC6C
:10053000090001AC0900F5CFEEFF004EE9D7F9D76D
:10054000F86A020ECF6F780ED06F3AD6C00EF21254
:10055000B00EF66E010EF76E6FDE5A50595C02E077
:1005600063D7FBD7C1A104D0BEC0CFF063D7C19180
:04057000F4D7FFD7E6
:020000040030CA
:0E00000000060D3E3C9C01000FC00FE00F40BB
:00000001FF
;PIC18F4431
;CRC=4E98  CREATED="25-Nov-15 01:27"
