:040000008BEF02F090
:08000800046ED8CF05F0E0CF33
:1000100006F00001E9CF0CF0EACF07F0E1CF08F0DD
:10002000E2CF09F0D9CF0AF0DACF0BF0F3CF12F01C
:10003000F4CF13F0FACF14F0F5CF15F0F6CF16F099
:10004000F7CF17F000C00EF001C00FF002C010F0A3
:1000500003C011F09DA030EF00F09EB0A1EF00F0C2
:100060009DAA36EF00F09EBA63EF00F09DA83CEF2A
:1000700000F09EB88BEF00F00EC000F00FC001F052
:1000800010C002F011C003F00CC0E9FF07C0EAFF86
:10009000078E08C0E1FF09C0E2FF0AC0D9FF0BC00C
:1000A000DAFF12C0F3FF13C0F4FF14C0FAFF15C04B
:1000B000F5FF16C0F6FF17C0F7FF045006C0E0FFBB
:1000C00005C0D8FF1000036A5950190FE96E000EE1
:1000D0000320EA6E9EAAFED7AECFEFFF59C0DFF035
:1000E000010E59243F0B596E5A50595C02E1DFC092
:1000F00059F09E9A3CEF00F094908B809EA8FED71A
:1001000094908B80E0C0ADFF0000ACA2FED794902D
:100110008B9098EF00F09C519B5D0FE0036A9C511F
:100120005B0FE96E000E0320EA6EEFCFE0F0E4D73C
:10013000010E9C253F0B9C6F01D09D989E983CEF33
:1001400000F0020E036E4E0EC26F03C0C3F09D900E
:100150009E903CEF00F0ECCFFAFFED52EFCFE8FFBE
:10016000F96E12004D657373616765207265636592
:1001700069766520646F6E652E0D0A0057616B65A8
:1001800075702068616E646C65722063616C6C656B
:10019000642E0D0A00004669726D776172652076E3
:1001A000657273696F6E2068616E646C657220633E
:1001B000616C6C65642E0D0A0000416464726573A5
:1001C000732068616E646C65722063616C6C656439
:1001D0002E0D0A00456E61626C652068616E646C6C
:1001E00065722063616C6C65642E0D0A0000D3514A
:1001F000010A05E0030A08E0010A0AE00CD0020E39
:10020000D66F080ED56F07D0D66B550ED56F03D0BD
:10021000D66B260ED56FAC98AC84AA86D6C0B0FF3C
:10022000D5C0AFFFB50ECD6E9D8AE8EF02F0036A30
:100230005A50190FE96E000E0320EA6EEFCFDAF084
:10024000010E5A243F0B5A6EDAC001F012005A50C8
:10025000595C01E115D0EBDF0150230811E1BD6BC2
:10026000BE6BBF6BC06BC46B020E036E820EC26F9F
:1002700003C0C3F0D80ECF6EF00ECE6E9E909D8060
:1002800012005A50595C01E10DD0D1DF01C0BDF020
:10029000D80ECF6EF00ECE6E020E036EA60EC26F9B
:1002A00003C0C3F012005A50595C01E10DD0BFDF0A
:1002B00001C0BEF0D80ECF6EF00ECE6E020E036EF1
:1002C000CA0EC26F03C0C3F012005A50595C01E15C
:1002D0000DD0ADDF01C0BFF0D80ECF6EF00ECE6EE8
:1002E000020E036EEE0EC26F03C0C3F012005A502E
:1002F000595C01E120D0036AC4519D0F016E000ECC
:10030000032201C0D8F003C0D9F091DFD9C0EAFFC1
:10031000D8C0E9FF01C0EFFFC42BD80ECF6EF00E9E
:10032000CE6EBF51C45D07E1C46B030E036E740E45
:10033000C26F03C0C3F01200D96BD951BD19BE19E9
:10034000BF19D96FD86BBF51D85D0BE2036AD85182
:100350009D0FE96E000E0320EA6EEF50D91BD82BDB
:10036000F2D7C051D95D02E0000E01D0010E016E3E
:10037000C6EF01F05A50595C01E117D058DF01C0B7
:10038000C0F0D80ECF6EF00ECE6ED6D7015207E178
:10039000020E036E4E0EC26F03C0C3F006D0040EF1
:1003A000036E040EC26F03C0C3F01200DB919C51B8
:1003B0009B5D01E1DB81036A9B515B0FE96E000EDF
:1003C0000320EA6EDAC0EFFF010E9B253F0BDC6FC6
:1003D0009C51DC5DFDE0DCC09BF0DBA101D09D8881
:1003E000FCEF01F00900F5520CE0F6CFD8F0F7CFA2
:1003F000D9F0F5CFDAF0DAD7D8C0F6FFD9C0F7FFD9
:10040000F1D712005A50595C01E118D09D900FDFCE
:100410000150240807E0020E036E4E0EC26F03C0A7
:10042000C3F00CD0020E036E4E0EC26F03C0C3F0B9
:10043000640EF66E010EF76ED5DFC18112007C0EE0
:10044000F66E010EF76ECEDF1200960EF66E010EFE
:10045000F76EC8DF1200BA0EF66E010EF76EC2DF3D
:100460001200D40EF66E010EF76EBCDF1200EA6ABF
:10047000C20EE96E70DEEAEF02F0D46B040ED56FA7
:10048000D551D45D10E2D451030DF350D76BD66F24
:10049000C70ED625E96E000ED721EA6ED351EF5C68
:1004A00002E0D42BEDD7D551D45D03E1FF0E016EF0
:1004B0001BD0D451030DF350D76BD66F010ED62548
:1004C000016E000ED721036E0150C70F016E000EA2
:1004D000032201C0D6F003C0D7F003C0EAFF01C079
:1004E000E9FF39DE000E016EF4EF02F0EA6AD30E86
:1004F000E96EEF500EE00C0E016E006A002EFED782
:10050000012EFBD7F70E006E002EFED700D0EF2E87
:10051000F2D7F8EF02F0F86AD09E078E94908B9095
:10052000AA86110EAF6E040EB06EA60EAC6E900EC3
:10053000AB6EC191020E036E4E0EC26F03C0C3F0CC
:10054000C46BC66BC56BB990C19CC19E000EB86EE2
:10055000040EC96F3E0EC86F040ECC6F4A0ECB6FEF
:10056000040ECF6F560ECE6F040ED26F620ED16F97
:100570000BD0A84019000100C7000100CA0101000A
:10058000CD020100D0030000000EF86E050EF76EDC
:10059000720EF66E0900F550006E000A13E00900B5
:1005A000F550016EE8BE05D00F0BEA6E0900F5CFDD
:1005B000E9FF01BC090001AC0900F5CFEEFF004ED8
:1005C000E9D7F9D7F86A020ED36F780ED46F0FD639
:1005D000C00EF2125A50595C02E049D7FBD7C1A1B4
:1005E00004D0BEC0D3F049D7C1910A0ED36F7ED7D5
:0405F000F1D703003C
:020000040030CA
:0E00000000060D3E3C9C81000FC00FE00F403B
:00000001FF
;PIC18F4431
;CRC=E0BE  CREATED="03-Dec-15 00:31"
