:04000000E5EF00F038
:08000800046ED8CF05F0E0CF33
:1000100006F00001E9CF0CF0EACF07F0E1CF08F0DD
:10002000E2CF09F0D9CF0AF0DACF0BF0F3CF12F01C
:10003000F4CF13F0FACF14F0F5CF15F0F6CF16F099
:10004000F7CF17F000C00EF001C00FF002C010F0A3
:1000500003C011F09DAA30EF00F09EBA57EF00F0F8
:100060000EC000F00FC001F010C002F011C003F08C
:100070000CC0E9FF07C0EAFF078E08C0E1FF09C016
:10008000E2FF0AC0D9FF0BC0DAFF12C0F3FF13C0B2
:10009000F4FF14C0FAFF15C0F5FF16C0F6FF17C035
:1000A000F7FF045006C0E0FF05C0D8FF1000036A48
:1000B0003950190FE96E000E0320EA6E9EAAFED792
:1000C000AECFEFFF39C041F0010E39241F0B396E5E
:1000D0003A50395C02E141C039F09E9A30EF00F0AD
:1000E0000D0A52756E6E696E672E2E2E0D0A000077
:1000F0000D0A4275666665726564206461746120EC
:100100003D3E200D0A003D50010A05E0030A08E0CB
:10011000010A0AE00CD0020E406E080E3F6E07D0B6
:10012000406A550E3F6E03D0406A260E3F6EAC9873
:10013000AC84AA8640C0B0FF3FC0AFFF9D8A22EFCB
:1001400001F094908B809EA8FED794908B803FC046
:10015000ADFF0000ACA2FED794908B901200090076
:10016000F5520CE0F6CF3DF0F7CF3EF0F5CF3FF083
:10017000E8DF3DC0F6FF3EC0F7FFF1D71200EA6AA4
:100180003E0EE96EEF500EE00C0E016E006A002E7E
:10019000FED7012EFBD7F70E006E002EFED700D043
:1001A000EF2EF2D72EEF01F0036A3A50190FE96EE5
:1001B000000E0320EA6EEFCF3DF0010E3A241F0B34
:1001C0003A6E3DC001F039EF01F0F86AD09E078E1B
:1001D00094908B90AA86110EAF6E040EB06EA60E90
:1001E000AC6E900EAB6E3C6A3B6AB990C19CC19EEE
:1001F000000EB86E03D0224019000000000EF86E09
:10020000010EF76EF60EF66E0900F550006E000A4C
:1002100013E00900F550016EE8BE05D00F0BEA6E41
:100220000900F5CFE9FF01BC090001AC0900F5CFD9
:10023000EEFF004EE9D7F9D7F86A020E3D6E780E50
:100240003E6E61D7C00EF212E00EF66E000EF76E33
:1002500086DF140E3D6EFA0E3E6E91D73D2EFBD713
:10026000F00EF66E000EF76E7ADF3A50395C07E05A
:100270009BD701C03DF001C03FF063DFF6D7E9D75F
:02028000030079
:020000040030CA
:0E00000000060D3E3C9C81000FC00FE00F403B
:00000001FF
;PIC18F4431
;CRC=0F13  CREATED="21-Nov-15 21:41"
