:0400000092EF02F089
:08000800046ED8CF05F0E0CF33
:1000100006F00001E9CF0CF0EACF07F0E1CF08F0DD
:10002000E2CF09F0D9CF0AF0DACF0BF0F3CF12F01C
:10003000F4CF13F0FACF14F0F5CF15F0F6CF16F099
:10004000F7CF17F000C00EF001C00FF002C010F0A3
:1000500003C011F09DA030EF00F09EB0A1EF00F0C2
:100060009DAA36EF00F09EBA63EF00F09DA83CEF2A
:1000700000F09EB88BEF00F00EC000F00FC001F052
:1000800010C002F011C003F00CC0E9FF07C0EAFF86
:10009000078E08C0E1FF09C0E2FF0AC0D9FF0BC00C
:1000A000DAFF12C0F3FF13C0F4FF14C0FAFF15C04B
:1000B000F5FF16C0F6FF17C0F7FF045006C0E0FFBB
:1000C00005C0D8FF1000036A5950190FE96E000EE1
:1000D0000320EA6E9EAAFED7AECFEFFF59C0DFF035
:1000E000010E59243F0B596E5A50595C02E1DFC092
:1000F00059F09E9A3CEF00F094908B809EA8FED71A
:1001000094908B80E0C0ADFF0000ACA2FED794902D
:100110008B9098EF00F09C519B5D0FE0036A9C511F
:100120005B0FE96E000E0320EA6EEFCFE0F0E4D73C
:10013000010E9C253F0B9C6F01D09D989E983CEF33
:1001400000F0020E036EB40EC26F03C0C3F09D90A8
:100150009E903CEF00F0ECCFFAFFED52EFCFE8FFBE
:10016000F96E12004D657373616765207265636592
:1001700069766520646F6E652E0D0A0057616B65A8
:1001800075702068616E646C65722063616C6C656B
:10019000642E0D0A00004669726D776172652076E3
:1001A000657273696F6E2068616E646C657220633E
:1001B000616C6C65642E0D0A0000416464726573A5
:1001C000732068616E646C65722063616C6C656439
:1001D0002E0D0A00456E61626C652068616E646C6C
:1001E00065722063616C6C65642E0D0A00004D43DE
:1001F00041312D56332D76312E300000D351010A76
:1002000005E0030A08E0010A0AE00CD0020ED66FEE
:10021000080ED56F07D0D66B550ED56F03D0D66BB1
:10022000260ED56FAC98AC84AA86D6C0B0FFD5C0D8
:10023000AFFFB50ECD6E9D8AEFEF02F0DB919C51C2
:100240009B5D01E1DB81036A9B515B0FE96E000E50
:100250000320EA6EDAC0EFFF010E9B253F0BDC6F37
:100260009C51DC5DFDE0DCC09BF0DBA101D09D88F2
:1002700044EF01F00900F5520CE0F6CFD8F0F7CFCB
:10028000D9F0F5CFDAF0DAD7D8C0F6FFD9C0F7FF4A
:10029000F1D71200036A5A50190FE96E000E0320BD
:1002A000EA6EEFCFDAF0010E5A243F0B5A6EDAC035
:1002B00001F012005A50595C01E115D0EBDF0150FA
:1002C000230811E1BD6BBE6BBF6BC06BC46B020E2C
:1002D000036EE80EC26F03C0C3F0D80ECF6EF00EEF
:1002E000CE6E9E909D8012005A50595C01E10DD057
:1002F000D1DF01C0BDF0D80ECF6EF00ECE6E030E72
:10030000036E0C0EC26F03C0C3F012005A50595C4A
:1003100001E10DD0BFDF01C0BEF0D80ECF6EF00EF0
:10032000CE6E030E036E300EC26F03C0C3F0120018
:100330005A50595C01E10DD0ADDF01C0BFF0D80EBD
:10034000CF6EF00ECE6E030E036E540EC26F03C05E
:10035000C3F012005A50595C01E120D0036AC45125
:100360009D0F016E000E032201C0D8F003C0D9F02A
:1003700091DFD9C0EAFFD8C0E9FF01C0EFFFC42B6D
:10038000D80ECF6EF00ECE6EBF51C45D07E1C46BC8
:10039000030E036EDA0EC26F03C0C3F01200D96BF6
:1003A000D951BD19BE19BF19D96FD86BBF51D85DCE
:1003B0000BE2036AD8519D0FE96E000E0320EA6E2E
:1003C000EF50D91BD82BF2D7C051D95D02E0000EF7
:1003D00001D0010E016EF9EF01F05A50595C01E1B4
:1003E00017D058DF01C0C0F0D80ECF6EF00ECE6E21
:1003F000D6D7015207E1020E036EB40EC26F03C0DE
:10040000C3F006D0040E036E120EC26F03C0C3F019
:1004100012005A50595C01E118D09D903BDF015009
:10042000240807E0020E036EB40EC26F03C0C3F0CF
:100430000CD0020E036EB40EC26F03C0C3F0640E84
:10044000F66E010EF76E16DFC18112007C0EF66E9D
:10045000010EF76E0FDF1200960EF66E010EF76EAC
:1004600009DF1200BA0EF66E010EF76E03DF1200FE
:10047000D40EF66E010EF76EFDDE1200EA6AC20EB1
:10048000E96E69DEF6EF02F0D46B040ED56FD5513C
:10049000D45D10E2D451030DF350D76BD66FC70E65
:1004A000D625E96E000ED721EA6ED351EF5C02E04B
:1004B000D42BEDD7D551D45D03E1FF0E016E1BD0D7
:1004C000D451030DF350D76BD66F010ED625016EB4
:1004D000000ED721036E0150C70F016E000E0322DC
:1004E00001C0D6F003C0D7F003C0EAFF01C0E9FFA6
:1004F00032DE000E016E00EF03F0EA6AD30EE96E01
:10050000EF500EE00C0E016E006A002EFED7012E99
:10051000FBD7F70E006E002EFED700D0EF2EF2D7DD
:1005200004EF03F0F86AD09E078E94908B90AA8611
:10053000110EAF6E040EB06EA60EAC6E900EAB6ECA
:10054000C191020E036EB40EC26F03C0C3F0C46B40
:10055000C66BC56BB990C19CC19E000EB86E040EEF
:10056000C96F4C0EC86F040ECC6F580ECB6F040EC3
:10057000CF6F640ECE6F040ED26F700ED16F0BD0A2
:10058000A84019000100C7000100CA010100CD0206
:100590000100D0030000000EF86E050EF76E800E0D
:1005A000F66E0900F550006E000A13E00900F550E0
:1005B000016EE8BE05D00F0BEA6E0900F5CFE9FF2A
:1005C00001BC090001AC0900F5CFEEFF004EE9D7F0
:1005D000F9D7F86A020ED36F780ED46F0FD6C00E1B
:1005E000F212EE0EF66E010EF76E44DE5A50595CB2
:1005F00002E044D7FBD7C1A104D0BEC0D3F044D79A
:0C060000C1910A0ED36F79D7F1D7030027
:020000040030CA
:0E00000000060D3E3C9C81000FC00FE00F403B
:00000001FF
;PIC18F4431
;CRC=FDB8  CREATED="03-Dec-15 01:10"
