:04000000F3EF01F029
:08000800046ED8CF05F0E0CF33
:1000100006F00001E9CF0CF0EACF07F0E1CF08F0DD
:10002000E2CF09F0D9CF0AF0DACF0BF0F3CF12F01C
:10003000F4CF13F0FACF14F0F5CF15F0F6CF16F099
:10004000F7CF17F000C00EF001C00FF002C010F0A3
:1000500003C011F09DA030EF00F09EB0A1EF00F0C2
:100060009DAA36EF00F09EBA63EF00F09DA83CEF2A
:1000700000F09EB88BEF00F00EC000F00FC001F052
:1000800010C002F011C003F00CC0E9FF07C0EAFF86
:10009000078E08C0E1FF09C0E2FF0AC0D9FF0BC00C
:1000A000DAFF12C0F3FF13C0F4FF14C0FAFF15C04B
:1000B000F5FF16C0F6FF17C0F7FF045006C0E0FFBB
:1000C00005C0D8FF1000036A5950190FE96E000EE1
:1000D0000320EA6E9EAAFED7AECFEFFF59C0CDF047
:1000E000010E59243F0B596E5A50595C02E1CDC0A4
:1000F00059F09E9A3CEF00F094908B809EA8FED71A
:1001000094908B80CEC0ADFF0000ACA2FED794903F
:100110008B9098EF00F09C519B5D0FE0036A9C511F
:100120005B0FE96E000E0320EA6EEFCFCEF0E4D74E
:10013000010E9C253F0B9C6F01D09D989E983CEF33
:1001400000F0020E036E440EC16F03C0C2F09D901A
:100150009E903CEF00F0ECCFFAFFED52EFCFE8FFBE
:10016000F96E12004D657373616765207265636592
:1001700069766520646F6E652E0D0A000D0A527552
:100180006E6E696E672E2E2E0D0A0000C651010A92
:1001900005E0030A08E0010A0AE00CD0020EC96F6C
:1001A000080EC86F07D0C96B550EC86F03D0C96B56
:1001B000260EC86FAC98AC84AA86C9C0B0FFC8C070
:1001C000AFFFB50ECD6E9D8A37EF02F0C9919C51FD
:1001D0009B5D01E1C981036A9B515B0FE96E000ED3
:1001E0000320EA6EC8C0EFFF010E9B253F0BCA6FCC
:1001F0009C51CA5DFDE0CAC09BF0C9A101D09D8899
:100200000CEF01F00900F5520CE0F6CFC6F0F7CF85
:10021000C7F0F5CFC8F0DAD7C6C0F6FFC7C0F7FF02
:10022000F1D71200036A5A50190FE96E000E03202D
:10023000EA6EEFCFC8F0010E5A243F0B5A6EC8C0C9
:1002400001F012005A50595C01E115D0EBDF01506A
:10025000230811E1BD6BBE6BBF6BC06BC36B020E9D
:10026000036E780EC16F03C0C2F0D80ECF6EF00ED1
:10027000CE6E9E909D8012005A50595C01E10DD0C7
:10028000D1DF01C0BDF0D80ECF6EF00ECE6E020EE3
:10029000036E9C0EC16F03C0C2F012005A50595C2D
:1002A00001E10DD0BFDF01C0BEF0D80ECF6EF00E61
:1002B000CE6E020E036EC00EC16F03C0C2F01200FC
:1002C0005A50595C01E10DD0ADDF01C0BFF0D80E2E
:1002D000CF6EF00ECE6E020E036EE40EC16F03C041
:1002E000C2F012005A50595C01E120D0036AC35198
:1002F0009D0F016E000E032201C0C6F003C0C7F0BF
:1003000091DFC7C0EAFFC6C0E9FF01C0EFFFC32B02
:10031000D80ECF6EF00ECE6EBF51C35D07E1C36B3A
:10032000030E036E6A0EC16F03C0C2F01200C76BEA
:10033000C751BD19BE19BF19C76FC66BBF51C65D86
:100340000BE2036AC6519D0FE96E000E0320EA6EB0
:10035000EF50C71BC62BF2D7C051C75D02E0000E9D
:1003600001D0010E016EC1EF01F05A50595C01E15C
:1003700017D058DF01C0C0F0D80ECF6EF00ECE6E91
:10038000D6D7015207E1020E036E440EC16F03C0BF
:10039000C2F006D0030E036EA20EC16F03C0C2F0FE
:1003A00012005A50595C01E117D09D903BDF01507B
:1003B000240807E0020E036E440EC16F03C0C2F0B2
:1003C0000BD0020E036E440EC16F03C0C2F0640E68
:1003D000F66E010EF76E16DF1200EA6AC10EE96EC4
:1003E000BADE3EEF02F0F86AD09E078E94908B90B2
:1003F000AA86110EAF6E040EB06EA60EAC6E900EF5
:10040000AB6E020E036E440EC16F03C0C2F0C36B2D
:10041000C56BC46BB990C19CC19E000EB86E03D071
:10042000A84019000000000EF86E040EF76E200EB2
:10043000F66E0900F550006E000A13E00900F55051
:10044000016EE8BE05D00F0BEA6E0900F5CFE9FF9B
:1004500001BC090001AC0900F5CFEEFF004EE9D761
:10046000F9D7F86A020EC66F780EC76F8FD6C00E26
:10047000F2127C0EF66E010EF76EC4DE5A50595C15
:0A04800002E0ABD7FBD7FAD7030068
:020000040030CA
:0E00000000060D3E3C9C81000FC00FE00F403B
:00000001FF
;PIC18F4431
;CRC=0292  CREATED="23-Nov-15 00:39"
