:04000000FEEF00F01F
:08000800046ED8CF05F0E0CF33
:1000100006F00001E9CF0CF0EACF07F0E1CF08F0DD
:10002000E2CF09F0D9CF0AF0DACF0BF0F3CF12F01C
:10003000F4CF13F0FACF14F0F5CF15F0F6CF16F099
:10004000F7CF17F000C00EF001C00FF002C010F0A3
:1000500003C011F09DAA30EF00F09EBA5DEF00F0F2
:100060009DA836EF00F09EB885EF00F00EC000F0BE
:100070000FC001F010C002F011C003F00CC0E9FF86
:1000800007C0EAFF078E08C0E1FF09C0E2FF0AC00F
:10009000D9FF0BC0DAFF12C0F3FF13C0F4FF14C086
:1000A000FAFF15C0F5FF16C0F6FF17C0F7FF0450A2
:1000B00006C0E0FF05C0D8FF1000036A3950190FD1
:1000C000E96E000E0320EA6E9EAAFED7AECFEFFFC8
:1000D00039C066F0010E39241F0B396E3A50395C75
:1000E00002E166C039F09E9A36EF00F094908B8062
:1000F0009EA8FED794908B8067C0ADFF0000ACA295
:10010000FED794908B9092EF00F05C505B5C0FE018
:10011000036A5C503B0FE96E000E0320EA6EEFCFDE
:1001200067F0E4D7010E5C241F0B5C6E01D09D9834
:100130009E9836EF00F00D0A52756E6E696E672E4E
:100140002E2E0D0A00005F50010A05E0030A08E0A8
:10015000010A0AE00CD0020E626F080E616F07D030
:10016000626B550E616F03D0626B260E616FAC98A7
:10017000AC84AA8662C0B0FF61C0AFFF9D8A3BEF2E
:1001800001F062915C505B5C01E16281036A5B504B
:100190003B0FE96E000E0320EA6E61C0EFFF010E17
:1001A0005B241F0B636F5C50635DFDE063C05BF01D
:1001B00062A101D09D8812000900F5520CE0F6CF33
:1001C0005FF0F7CF60F0F5CF61F0DBDF5FC0F6FFE7
:1001D00060C0F7FFF1D742EF01F0036A3A50190F00
:1001E000E96E000E0320EA6EEFCF5FF0010E3A24B5
:1001F0001F0B3A6E5FC001F046EF01F0F86AD09E27
:10020000078E94908B90AA86110EAF6E040EB06E7E
:10021000A60EAC6E900EAB6E5E6A5D6AB990C19C24
:10022000C19E000EB86E03D0444019000000000EBD
:10023000F86E020EF76E280EF66E0900F550006E8D
:10024000000A13E00900F550016EE8BE05D00F0B5F
:10025000EA6E0900F5CFE9FF01BC090001AC090015
:10026000F5CFEEFF004EE9D7F9D7F86A020E5F6EC0
:10027000780E606F68D7C00EF212360EF66E010E61
:10028000F76E9AD73A50395C07E0A7D701C05FF004
:0C02900001C061F076DFF6D7F5D703005F
:020000040030CA
:0E00000000060D3E3C9C81000FC00FE00F403B
:00000001FF
;PIC18F4431
;CRC=BD2F  CREATED="21-Nov-15 22:20"
